:0400D70041000000E4
:080003005393FCD280D281224C
:1000BF00758901758C97758AD6D2A9D2AFD28C2249
:0800CF001200031200BF80FEC5
:03000B0002009A56
:10009A00C0E0C083C082C0D0758C97758AD69000A4
:1000AA0000E004F0E0B41904E4F0B280D0D0D082C9
:0500BA00D083D0E0320C
:0300000002000EED
:0C000E00787FE4F6D8FD758107020055EC
:10001A000200CFE493A3F8E493A34003F68001F22D
:10002A0008DFF48029E493A3F85407240CC8C333E7
:10003A00C4540F4420C8834004F456800146F6DFB6
:10004A00E4800B01020408102040809000D7E47E6F
:10005A00019360BCA3FF543F30E509541FFEE493AB
:10006A00A360010ECF54C025E060A840B8E493A372
:10007A00FAE493A3F8E493A3C8C582C8CAC583CA9D
:10008A00F0A3C8C582C8CAC583CADFE9DEE780BE55
:0100DB000024
:00000001FF
