:10000300414443432053616D70696E672056616CB0
:0B001300756528484558293A000A008E
:09005800011000010F00010E006F
:100209007F061202FE7F01120393E4FF12033E7F71
:100219000112036BE4FF12030E7F0312034D7F01EA
:0A02290012037953D4F075D50022BA
:0C0387005393FE5393F7439310D280224F
:020026008F1138
:10002800E511C4540FF512D39409E512400424379E
:1000380080022430FF120258E511540FF512D394B0
:0F00480009E5124004243780022430FF120258C9
:010057002286
:100233008B118A128913AB11AA12A9131202AF6090
:10024300130513E5137002051214F91202AFFF121E
:05025300025880E222C8
:10013B001203877F071201C71203B7BF02FA12021D
:10014B0009D2BCD2AF1203AB7FF47E011202C8B24C
:10015B0080E510B401F2E4F5107BFF7A007903120D
:10016B000233AF0F120026AF0E1200267BFF7A0070
:07017B00791C12023380D150
:0300630002018215
:10018200C0E0C0F0C083C082C0D075D000C000C043
:1001920001C002C003C004C005C006C0077510013B
:1001A2001203F78F0F12001E8F0ED007D006D00554
:1001B200D004D003D002D001D000D0D0D082D083DE
:0501C200D0F0D0E03296
:0B027C007FFA7E001202877FFA7E00EE
:0F0287000000000000EF1F70011E144E70F222E5
:1002C800AD07AC0612027C12027CED1D70011C14F5
:0402D8004C70F12253
:1002FE00EF25E025E0543CFFE5D354C34FF5D32260
:0C039300EF5403FFE5D354FC4FF5D322D8
:0F033E00EFC4333354C0FFE5D2543F4FF5D22202
:0E036B00EFC4335420FFE5D254DF4FF5D22209
:10030E00EF25E025E0541CFFE5D254E34FF5D22251
:10031E00EF25E025E0541CFFE5D254E34FF5D22241
:0C039F00EF5403FFE5D254FC4FF5D222CE
:0F034D00EFC4333354C0FFE5D1543F4FF5D122F5
:0E037900EFC4335420FFE5D154DF4FF5D122FD
:0B03AB007F0143D380AE071FEE70FA05
:0103B6002224
:03001E00AFD52239
:0303F700AFD4225E
:0603E500E5D35440FF22A5
:1002DC00E5D154187E007803CEC313CE13D8F9FFA2
:0102EC0022EF
:10032E00EF6009E5A3448054F7F5A32253A3772287
:1002ED00EF5401C4333354C0FFE5A354B74FF5A306
:0102FD0022DE
:0F035C00EF5403C454F0FFE5A354C74FF5A32299
:0B03B700E5AD30E3047F0280027F010F
:0103C2002218
:0C03C300EF5407FFE5A354F04FF5A32210
:0603EB00E5AD5480FF2285
:0603F100E5AD5440FF22BF
:0C03CF00EF5407FFE5AD54F84FF5AD22E8
:030023000200F2E6
:1000F200C0E0C0D075D000C000309819C298E508A1
:10010200C3942050107414250CF8A699E50C0454DD
:100112001FF50C050830991AC299E509D3940140DC
:100122000F7434250BF8E6F599E50B04541FF50B13
:090132001509D000D0D0D0E03254
:1001C700C2ACE4F50BF50DF509F50AF50CF508D207
:1001D7009CC29FD29E43878043D880EF24FC601344
:1001E70024FE60091470127C037DF780107C037D68
:1001F700F3800A7C037DCC80047C037DE68DAA8C8A
:01020700BA3C
:0102080022D3
:10025800E509D3942050F9C2ACE50970048F998060
:100268000E7434250DF8A607E50D04541FF50D0589
:0402780009D2AC22D9
:0303FA00AF082227
:0A03DB00E50970037F01227F002274
:10029600E50860FCC2AC7414250AF8E6FFE50A041A
:0802A600541FF50A1508D2AC43
:0102AE00222D
:0300000002006695
:0C006600787FE4F6D8FD7581530200ADF0
:1002AF00BB010689828A83E0225002E722BBFE024D
:0902BF00E32289828A83E4932280
:1000720002013BE493A3F8E493A34003F68001F268
:1000820008DFF48029E493A3F85407240CC8C3338F
:10009200C4540F4420C8834004F456800146F6DF5E
:1000A200E4800B0102040810204080900058E47E96
:1000B200019360BCA3FF543F30E509541FFEE49353
:1000C200A360010ECF54C025E060A840B8E493A31A
:1000D200FAE493A3F8E493A3C8C582C8CAC583CA45
:1000E200F0A3C8C582C8CAC583CADFE9DEE780BEFD
:01006100009E
:00000001FF
