:08008B005393FCD280D28122C4
:1000030012008BE4900000F0B2807F647E00120047
:100013006BB2817F647E0012006B900000E004F0FD
:10002300E0C3940440E27F2C7E0112006BE4900055
:1000330000F0900000E0C3940650C8B280B2817F04
:0E004300647E0012006B900000E004F080E488
:0B0051007FFA7E0012005C7FFA7E0048
:0F005C000000000000EF1F70011E144E70F22212
:10006B00AD07AC06120051120051ED1D70011C14AE
:04007B004C70F122B2
:0300000002007F7C
:0C007F00787FE4F6D8FD758107020003CD
:00000001FF
