:1000030057656C636F6D6520746F20466959752160
:020013000A00E1
:040291001201F12243
:0E0015005393FC5393F7439310D280D2812271
:10016400900005EBF0A3EAF0A3E9F0900005E0FBB2
:10017400A3E0FAA3E0F91201976017900005A3E445
:1001840075F0011201B0A9F0FA120197FF1201C62D
:0301940080D922ED
:10002600E4900003F01200157F0712011712024335
:10003600BF02FAD2AF7BFF7A007903120164120283
:100046008BEF60FA1201F1900004EFF06423602157
:10005600900003E0C394035018A3E0FF900003E070
:10006600FE04F074002EF582E43400F583EFF08090
:10007600CD900003E0C394034004E4F080C09000F8
:1000860000E0FF64446004EFB464B3900001E02430
:10009600D024FE600E0470A6C280D281E4900003D4
:0E00A600F0809BD280C281E4900003F0809035
:10022400EF6009E5A3448054F7F5A32253A3772292
:10021300EF5401C4333354C0FFE5A354B74FF5A3E0
:0102230022B8
:0F023400EF5403C454F0FFE5A354C74FF5A322C2
:0B024300E5AD30E3047F0280027F0184
:01024E00228D
:0C024F00EF5407FFE5A354F04FF5A32285
:06027F00E5AD5480FF22F2
:06028500E5AD5440FF222C
:0C025B00EF5407FFE5AD54F84FF5AD225D
:030023000200B424
:1000B400C0E0C083C082C0D075D000C000C007308B
:1000C4009820C298900008E0C39420501590000C2A
:1000D400E0FF2408F8A699EF04541FF0900008E00C
:1000E40004F0309921C299900009E0D394014010A2
:1000F40090000BE0FF2428F8E6F599EF04541FF074
:10010400900009E014F0D007D000D0D0D082D08382
:03011400D0E03206
:10011700C2ACE490000BF090000DF0900009F0A342
:10012700F090000CF0900008F0D29CC29FD29E4342
:10013700878043D880EF24FC601324FE6009147085
:10014700127C037DF780107C037DF3800A7C037D9E
:0C015700CC80047C037DE68DAAECF5BA98
:010163002279
:1001C600900009E0FED3942050F6C2ACEE70048F86
:1001D60099800F90000DE0FE2428F8A607EE04543F
:0B01E6001FF0900009E004F0D2AC22F2
:06028B00900008E0FF22D4
:0C026700900009E070037F01227F00225C
:1001F100900008E060FAC2AC90000AE0FF2408F821
:10020100E6FEEF04541FF0900008E014F0D2ACAF0A
:0102110006E6
:0102120022C9
:0300000002027386
:0C027300787FE4F6D8FD75814702002674
:10019700BB010689828A83E0225002E722BBFE0266
:0901A700E32289828A83E4932299
:1001B000A3F8E0C5F025F0F0E58215827002158302
:0601C000E0C838F0E8225F
:00000001FF
