:10039400466C61736820616464726573732030789D
:0D03A400464130307E3078464130343A001A
:0C0423005393FE5393F7439310D28022B2
:0502B300900005EFF0D2
:1002B800E0C4540FA3F0D394094005E02437800626
:1002C800900006E02430FF120322900005E0540F4E
:1002D800A3F0D394094005E024378006900006E097
:0602E8002430FF12032286
:0102EE0022ED
:1002EF00900005EBF0A3EAF0A3E9F0900005E0FB26
:1002FF00A3E0FAA3E0F912011A6017900005A3E436
:10030F0075F001120145A9F0FA12011AFF1203222A
:03031F0080D92260
:10002600900001120178000000007F0212041412F1
:1000360004237F0712026612042FBF02FAD2AF9082
:100046000001E0FCA3E0FDA3E0FEA3E02401FFE441
:100056003EFEE43DFDE43CFC90000112016CE47FB1
:10006600107E27FDFC900001E0F8A3E0F9A3E0FA7A
:10007600A3E0FBC312015B700CB280900001120179
:1000860078000000002092B77F0A7E001203CB2082
:1000960092AD7F201203DF7F1E7E001203CBE49019
:1000A6000000F0900000E0FF04FE74482FF8A6065A
:1000B600E004F0E0B405EC7B007A00794890000A91
:1000C600E4F0A37405F07F007EFA12020C7B007A3E
:1000D60000794D90000AE4F0A37405F07F007EFAE3
:1000E60012034D7BFF7A0379941202EFE49000002D
:1000F600F0900000E0FFC394055011744D2FF8E610
:10010600FF1202B3900000E004F080E53092030293
:04011600004580F828
:0B03B1007FFA7E001203BC7FFA7E0082
:0F03BC000000000000EF1F70011E144E70F222AF
:1003CB00AD07AC061203B11203B1ED1D70011C1485
:0403DB004C70F1224F
:10040400EF6009E5A3448054F7F5A32253A37722B0
:1003F300EF5401C4333354C0FFE5A354B74FF5A3FF
:0104030022D6
:0F041400EF5403C454F0FFE5A354C74FF5A322E0
:0B042F00E5AD30E3047F0280027F0196
:01043A00229F
:0C043B00EF5407FFE5A354F04FF5A32297
:06047200E5AD5480FF22FD
:06047800E5AD5440FF2237
:0C044700EF5407FFE5AD54F84FF5AD226F
:1003DF00A2AF92D5C2AFD2FD8FFA20FCFDC2FDA213
:0403EF00D592AF22D2
:10000300A2AF92D5C2AFD2FD900012EEF0A3EFF0F3
:0F001300F5828E83EDF020FCFDC2FDA2D592AFE9
:0100220022BB
:0B020C00900007EBF0A3EAF0A3E9F07C
:10021700A2AF92D5C2AFD2FD900014EEF0A3EFF0DB
:1002270090000A74FFF5F012014545F0602A90002E
:1002370007E0FBA3E475F001120145A9F0FA1201EA
:100247001AFF900014E475F00112014585F082F55C
:0E02570083EFF030FCCA80FBC2FDA2D592AF4F
:010265002276
:06046B008F828E83E0FF8A
:010471002268
:10034D0090000A74FFF5F012014545F060168F829A
:10035D008E83E01201330FBF00010E740129F9E401
:04036D003AFA80DCFC
:010371002269
:030023000201A92E
:1001A900C0E0C083C082C0D075D000C000C0073095
:1001B9009820C29890000CE0C3942050159000102C
:1001C900E0FF2408F8A699EF04541FF090000CE012
:1001D90004F0309921C29990000DE0D394014010A8
:1001E90090000FE0FF2428F8E6F599EF04541FF07A
:1001F90090000DE014F0D007D000D0D0D082D08389
:03020900D0E03210
:10026600C2ACE490000FF0900011F090000DF0A3E6
:10027600F0900010F090000CF0D29CC29FD29E43EA
:10028600878043D880EF24FC601324FE6009147035
:10029600127C037DF780107C037DF3800A7C037D4E
:0C02A600CC80047C037DE68DAAECF5BA48
:0102B2002229
:1003220090000DE0FED3942050F6C2ACEE70048F24
:1003320099800F900011E0FE2428F8A607EE0454DD
:0B0342001FF090000DE004F0D2AC2290
:06047E0090000CE0FF22DB
:0C04530090000DE070037F01227F00226A
:1003720090000CE060FAC2AC90000EE0FF2408F896
:10038200E6FEEF04541FF090000CE014F0D2ACAF84
:010392000664
:010393002247
:0300000002045F98
:0C045F00787FE4F6D8FD75815C02002671
:10011A00BB010689828A83E0225002E722BBFE02E3
:09012A00E32289828A83E4932216
:10013300BB010689828A83F0225002F722BBFE01AB
:02014300F322A5
:10014500A3F8E0C5F025F0F0E5821582700215836D
:06015500E0C838F0E822CA
:10015B00EB9FF5F0EA9E42F0E99D42F0E89C45F0FA
:01016B002271
:0C016C00ECF0A3EDF0A3EEF0A3EFF02206
:10017800A8828583F0D083D08212018F12018F125A
:10018800018F12018FE473E493A3C583C5F0C5837F
:10019800C8C582C8F0A3C583C5F0C583C8C582C8D1
:0101A8002234
:00000001FF
