:100026004C61737420726573657420726561736FB9
:100036006E3A204F6E2D6368697020726573657421
:100046002067656E657261746F724F6E2D636869A5
:10005600702072657365742067656E657261746F72
:1000660072210A004C617374207265736574207284
:100076006561736F6E3A205253542070696E210A7F
:10008600004C6173742072657365742072656173C8
:100096006F6E3A205761746368646F67210A004C7B
:1000A60061737420726573657420726561736F6E17
:1000B6003A2052657365742066726F6D206F6E2DDF
:1000C600636869702068617264776172652064652F
:0900D600627567676572210A007A
:0C0357005393FE5393F7439310D280227F
:10000300E4FF1203AA7F0112037B7F011203AAE517
:0A001300AD20E7FBE5AD30E7FB226E
:1001FC00900007EBF0A3EAF0A3E9F0900007E0FB16
:10020C00A3E0FAA3E0F912022F6017900007A3E411
:10021C0075F001120248A9F0FA12022FFF12025EC9
:03022C0080D92254
:1000DF001203577F071201AF120363BF02FAD2AFA9
:1000EF00120003E4900006F0B2807F647E001202DB
:1000FF00F1900006E004F0E0C3940640EBAFB1EFDF
:10010F005407FF14601314601824FE601C2404703D
:10011F00217BFF7A00792680167BFF7A00796A802F
:10012F000E7BFF7A00798780067BFF7A0079A51214
:0D013F0001FCE4F5B1FF7E051203C080FE57
:0B02AB007FFA7E001202B67FFA7E0090
:0F02B6000000000000EF1F70011E144E70F222B6
:1002F100AD07AC061202AB1202ABED1D70011C146E
:040301004C70F12229
:10032A00EF6009E5A3448054F7F5A32253A377228B
:10031900EF5401C4333354C0FFE5A354B74FF5A3D9
:0103290022B1
:0F033A00EF5403C454F0FFE5A354C74FF5A322BB
:0B036300E5AD30E3047F0280027F0163
:01036E00226C
:0C036F00EF5407FFE5A354F04FF5A32264
:06001D00E5AD5480FF2256
:0603C700E5AD5440FF22E9
:0C037B00EF5407FFE5AD54F84FF5AD223C
:0300230002014C8B
:10014C00C0E0C083C082C0D075D000C000C00730F2
:10015C009820C298900000E0C394205015900004A1
:10016C00E0FF2408F8A699EF04541FF0900000E07B
:10017C0004F0309921C299900001E0D39401401011
:10018C00900003E0FF2428F8E6F599EF04541FF0E3
:10019C00900001E014F0D007D000D0D0D082D083F2
:0301AC00D0E0326E
:1001AF00C2ACE4900003F0900005F0900001F0A3C2
:1001BF00F0900004F0900000F0D29CC29FD29E43BA
:1001CF00878043D880EF24FC601324FE60091470ED
:1001DF00127C037DF780107C037DF3800A7C037D06
:0C01EF00CC80047C037DE68DAAECF5BA00
:0101FB0022E1
:10025E00900001E0FED3942050F6C2ACEE70048FF5
:10026E0099800F900005E0FE2428F8A607EE0454AE
:0B027E001FF0900001E004F0D2AC2261
:0603CD00900000E0FF2299
:0C038700900001E070037F01227F002243
:10028900900000E060FAC2AC900002E0FF2408F898
:10029900E6FEEF04541FF0900000E014F0D2ACAF7A
:0102A900064E
:0102AA002231
:0403D30043B31022FE
:0B039F00EF600443B3082253B3F722C1
:0E034900EF25E05406FFE5B354F94FF5B3225B
:0B03AA00EF600443B3012253B3FE22B6
:10030500E5B35406FD53B3F9EFF5B4EEF5B5AF0516
:03031500EF42B301
:0103180022C2
:1002C500E5B35406F953B3F9AFB5EFFEADB4EDFFA1
:0502D500AD01ED42B394
:0102DA002201
:1002DB00E5B35408F953B3F7AFABEFFEADB6EDFF93
:0502EB00AD01ED42B37E
:0102F00022EB
:0303D700AFAC22A6
:0703C000EFF5AFEEF5AF22EF
:0A03B500AFAFAEAF8FAFAF068FAF52
:0103BF00221B
:0300000002039365
:0C039300787FE4F6D8FD7581470200DF9A
:10022F00BB010689828A83E0225002E722BBFE02CD
:09023F00E32289828A83E4932200
:10024800A3F8E0C5F025F0F0E58215827002158369
:06025800E0C838F0E822C6
:00000001FF
