:10147E003031323334353637383900616263646562
:10148E00666768696A6B6C6D6E6F700041424344AB
:0D149E0045464748494A4B4C4D4E4F5000C3
:100FB300E4900000F01211E5E4FF1214ABE4FF1219
:100FC30014ABE4900000F0900000E0FE75F008A47C
:100FD300FFEE2420FBE4FD12139D900000E0FE755C
:100FE300F008A4FFEE2430FB7D0212139D90000055
:100FF300E0FE75F008A4FFEE2440FB7D0412139D70
:10100300900000E0FE75F008A4FFEE2450FB7D067F
:1010130012139D900000E004F0E0C3941040A87FF9
:10102300B87E0B121510E4FF1214AB7BFF7A147910
:101033007EE4FDFF12111D7BFF7A1479897D02E4A2
:10104300FF12111D7BFF7A14799A7D04E4FF1211BC
:101053001D7BFF7A14797E7D06E4FF12111D7F88C4
:101063007E13121510E4FF1214ABE4900000F0900D
:101073000000E0FBC454F02410FF7D0212132C90F7
:101083000000E004F0E0C3940640E4E4900000F0C4
:10109300900000E0FEC454F02420FFEE2406FB7D04
:1010A3000412132C900000E0FEC454F02420FFEE41
:1010B300240AFB7D0612132C900000E004F0E0C329
:1010C300940440CC7FB87E0B121510E4FF1214ABCE
:1010D3009000047408F0A374FFF0A37407F0A374E2
:1010E300B3F07B80E4FDFF12129D7FB87E0B1215D7
:1010F30010E4FF1214AB9000047408F0A374FFF023
:10110300A3740BF0A374B3F07B80E4FDFF12129D74
:0A1113007FB87E0B121510020FC00A
:0B14F6007FFA7E001215017FFA7E00D5
:0F1501000000000000EF1F70011E144E70F22258
:10151000AD07AC061214F61214F6ED1D70011C1482
:041520004C70F122F8
:10144100F582E435F0F583E5822403F582E5833402
:0814510000F583E493FF7D0127
:10145900ED7004C2968002D296E4FEC282EF5480F7
:10146900FC7004C2948002D294EF25E0FFD2820E70
:04147900EEB408E7DE
:01147D00224C
:1014D600AB07ED24B0FFE4FD121459EB54F0C454ED
:1014E6000F4410FF121459EB540F4401FF02145914
:0214AB00A9078F
:1014AD00E4FBEB24B0FFE4FD1214597F0212145932
:1014BD007F10121459E4FAAF017D011214590AEA92
:0814CD00B480F40BEBB408DA63
:0114D50022F4
:06139D00AA07A905AF0339
:1013A300E4900001F0FBEF24E0F0EAD3947F4004E3
:1013B300E4FA0909AF02AD011214D6E4FB9000016F
:1013C300E075F010A42B1214410BEBB408EFAF023D
:1013D300E904FD1214D6E4FB900001E075F010A4BB
:1013E3002BF582E435F0F583E582240BF582E58362
:0A13F30034001214520BEBB408DEB4
:0113FD0022CD
:10111D00900001EFF0A3EDF0A3EBF0A3EAF0A3E94B
:01112D00F0D1
:10112E00E4A3F0A3F0A3F0900003E0FBA3E0FAA386
:10113E00E0F9900008E0F5827583001213FE70034B
:10114E000211E424E0900006F0900001E0D39478C0
:10115E004006E4F0A3E004F0900001E0FFA3E0FD00
:10116E001214D6E4900007F0900007E0FFC3940835
:10117E005014900006E075F010A42F121441900048
:10118E0007E004F080E2900001E0FFA3E004FD120E
:10119E0014D6E4900007F0900007E0FFC3940850C7
:1011AE0025900006E075F010A42FF582E435F0F5D9
:1011BE0083E582240BF582E58334001214529000ED
:1011CE0007E004F080D1900001E02408F0900008C0
:0611DE00E004F0021135EF
:0111E40022E8
:06132C00AA05A907AF03AA
:10133200E4FBEF75F020A4FF900001E5F0F0A3EFCD
:10134200F0AF011214D6E4FB900001E0FEA3E0240A
:10135200F3F58274053E121452900002E004F0701C
:1013620006900001E004F00BEBB410DCAF01EA04DC
:10137200FD1214D6E4FB900001E0FEA3E024F3F595
:101382008274053E121452900002E004F07006903E
:0A1392000001E004F00BEBB410DCE6
:01139C00222E
:0A129D00900001EFF0900003EBF069
:1012A700E4900008F0A3F0900004E0FF54077008F2
:1012B700EF131313541F800A900004E01313135401
:1012C7001F0490000BF090000BEDF0900004E0FF7E
:1012D70090000BE0FDC39F504B900001E0FF1214FC
:1012E700D6E090000AF0900003E0FF90000AE0C308
:1012F7009F5029900005E0FBA3E0FAA3E0F9A3E4DF
:1013070075F00112142B85F082F5831213FEFF7D11
:101317000112145990000AE004F080CA90000BE013
:0413270004F080A7A7
:01132B00229F
:1011E5005393FB53948F7F0A7E00121510D2957F7F
:1011F5000A7E00121510C2957FC87E00121510E4F4
:10120500FD7FAE121459E4FF1214597F10121459C0
:101215007F401214597F811214597FCF1214597FC0
:10122500A11214597FC81214597FA61214597FA808
:101235001214597F3F1214597FD3121459E4FF1227
:1012450014597FD51214597F801214597FD912145D
:10125500597FF11214597FDA1214597F1212145959
:101265007FDB1214597F401214597F201214597FC5
:10127500021214597F8D1214597F141214597FA428
:101285001214597FA61214597FAF1214597FFF12F9
:0812950014ABE4FDFF0214D6C6
:1000030000000000000000000000000000000000ED
:10001300000000F800000000000000333000000082
:1000230000100C06100C0600000000000000000089
:1000330040C07840C0784000043F04043F040400FB
:10004300007088FC08300000001820FF211E00000B
:10005300F008F000E018000000211C031E211E0020
:1000630000F00888700000001E21232419272110A6
:1000730010160E0000000000000000000000000049
:10008300000000E0180402000000000718204000F0
:1000930000020418E00000000040201807000000E0
:1000A300404080F0804040000202010F0102020044
:1000B300000000F0000000000101011F0101010028
:1000C300000000000000000080B07000000000008D
:1000D3000000000000000000000101010101010116
:1000E30000000000000000000030300000000000AD
:1000F3000000000080601804006018060100000082
:1001030000E010080810E000000F102020100F007E
:10011300001010F8000000000020203F2020000005
:10012300007008080888700000302824222130005D
:1001330000300888884830000018202020110E0065
:100143000000C02010F8000000070424243F24000E
:1001530000F80888880808000019212020110E00E3
:1001630000E0108888180000000F112020110E00F5
:1001730000380808C83808000000003F00000000ED
:100183000070880808887000001C222121221C00AE
:1001930000E010080810E0000000312222110F00D7
:1001A300000000C0C000000000000030300000006C
:1001B30000000080000000000000806000000000DC
:1001C30000008040201008000001020408102000F5
:1001D3004040404040404000040404040404040040
:1001E30000081020408000000020100804020100D5
:1001F300007048080808F0000000003036010000D5
:10020300C030C828E810E0000718272423140B0087
:100213000000C038E0000000203C23020227382001
:1002230008F8888888700000203F202020110E00E5
:10023300C0300808080838000718202020100800DC
:1002430008F808080810E000203F202020100F00C5
:1002530008F88888E8081000203F20202320180091
:1002630008F88888E8081000203F200003000000F9
:10027300C03008080838000007182020221E02009A
:1002830008F808000008F808203F210101213F2059
:10029300000808F8080800000020203F2020000084
:1002A30000000808F8080800C08080807F00000074
:1002B30008F888C028180800203F200126382000AD
:1002C30008F8080000000000203F20202020300014
:1002D30008F8F800F8F80800203F003F003F20002E
:1002E30008F830C00008F808203F200007183F0036
:1002F300E01008080810E0000F10202020100F0065
:1003030008F808080808F000203F21010101000057
:10031300E01008080810E0000F18242438504F009C
:1003230008F8888888887000203F2000030C30205C
:1003330000708808080838000038202121221C009A
:10034300180808F8080818000000203F20000000E3
:1003530008F808000008F808001F202020201F00CC
:100363000878880000C83808000007380E0100002C
:10037300F80800F80008F800033C0700073C0300F6
:10038300081868808068180820302C03032C30205C
:100393000838C800C83808000000203F20000000CB
:1003A30010080808C8380800203826212020180023
:1003B300000000FE020202000000007F40404000F7
:1003C300000C30C000000000000000010638C0002F
:1003D30000020202FE000000004040407F000000D7
:1003E30000000402020204000000000000000000FC
:1003F30000000000000000008080808080808080FA
:1004030000020204000000000000000000000000E1
:1004130000008080808000000019242222223F20D7
:1004230008F8008080000000003F112020110E001A
:100433000000008080800000000E112020201100A9
:10044300000000808088F800000E112020103F205B
:100453000000808080800000001F222222221300DF
:10046300008080F0888888180020203F202000002A
:100473000000808080808000006B949494936000DF
:1004830008F8008080800000203F210000203F20EA
:1004930000809898000000000020203F20200000EA
:1004A300000000809898000000C08080807F0000DA
:1004B30008F8000080808000203F24022D302000B7
:1004C300000808F8000000000020203F2020000062
:1004D3008080808080808000203F20003F20003F7C
:1004E3008080008080800000203F210000203F208A
:1004F3000000808080800000001F202020201F003B
:10050300808000808000000080FFA12020110E0069
:100513000000008080808000000E112020A0FF805A
:10052300808080008080800020203F212000010007
:10053300000080808080800000332424242419005C
:10054300008080E0808000000000001F2020000069
:100553008080000000808000001F202020103F20AA
:10056300808080000080808000010E30080601003A
:1005730080800080008080800F300C030C300F00DF
:1005830000808000808080000020312E0E3120000A
:10059300808080000080808080818E70180601003A
:1005A30000808080808080000021302C2221300058
:1005B30000000000807C020200000000003F404079
:1005C30000000000FF00000000000000FF0000002A
:1005D3000002027C800000000040403F0000000059
:1005E30000060101020204040000000000000000F4
:1005F30010101010180808F8F8F8E8F818100000A0
:1006030000000000000000030F1F3131217C7C003B
:100613000000703890D0D2D6DE5C4838381810000D
:10062300000002020242C2FF7F0303010303000032
:100633000080A0F0FEFEFEE8B8F0F090F07030000D
:1006430000000406037F7E6A2A6AFE7E0200000021
:1006530000406078DCFCF462FEFE98C8E8600000AD
:1006630000203F3F2B7F7F013F3F666262383800A7
:10067300808080F0F8FC5C4450D0FEFEFC0000005B
:10068300080C0E073F3F030302023FFF7F010100F7
:1006930000004040FEFE242020FCFCB410100000AB
:1006A300040404267F7F2123371D1F3F3120604030
:1006B3000080E0F8FC0C3878ECECBCBC8C8080004B
:1006C3000303013F3F391D0F7F7F070E1C181000E6
:1006D30000004062FEFEA080A0FEFEFED050C000DF
:1006E300040426273F3F05050E4A6B7F7F02020065
:1006F3000080808C8C088082DEFEF848C880000071
:100703000101393F3F383F3F3E3F1F1F3F7370009A
:100713000000C0F0FCBC24A0A4ACACACB0303000F2
:100723000203017F7F00083A3A2A2E3E3E0800006A
:1007330000000020E4E46CFCFCDED6F6F0100000C0
:10074300000080C467773D5F4F647D7D1C0000001F
:1007530000808080888888F8F84C4C4C40404000EA
:10076300000000000020607F7F0000000000000008
:10077300000080E078BCBCB020E0E0E4FCFC0400B6
:100783000003031F3F252F37383327677F7F000080
:10079300808080B0F2FEFE7CF8F0F8CCCC4840407C
:1007A30000081E1E1F3F1F353F0F017F7F00000003
:1007B3000003050911FF118905C300E000F000F8EB
:1007C300000000000000004428FF11AA44000000BC
:1007D3000000000000000000000000000000000016
:1007E3000000000000000000000000000000000006
:1007F30000000000000000000000000000000000F6
:1008030000000000000000000000830138448292D1
:1008130092740183000000000000007C44FF017D0E
:100823007D7D017D7D7D7D017D7D7D7D7D01FF0064
:1008330000000000000100010001000100010001AF
:1008430000000000000000000001010000000000A3
:100853000000000000000000000000000000000095
:100863000000000000000000000000000000000085
:100873000000000000000000000000000000000075
:100883000000000000000000000001010000000063
:100893000000010100000000000000000001010150
:1008A3000101010101010101010101010101010036
:1008B3000000000000000000000000000000000035
:1008C3000000000000000000000000003F3F0303A1
:1008D300F31311111111111101F1116181010101C1
:1008E300816111F1010101014141F10101010101A5
:1008F300C1211111111121C1010101014141F10175
:100903000101010101010101011111111111D33380
:1009130003033F3F00000000000000000000000050
:1009230000000000000000000000000000000000C4
:1009330000000000000000000000000000000000B4
:10094300000000000000000000000000E0E00000E4
:100953007F01010101010100007F0000010618066B
:100963000100007F0000000040407F404000000085
:100973001F2040404040201F0000000040407F40B7
:100983004000000000600000000040300C03000045
:100993000000E0E000000000000000000000000094
:1009A3000000000000000000000000000000000044
:1009B3000000000000000000000000000000000034
:1009C300000000000000000000000000070706060A
:1009D30006060404048444444484040484444444D0
:1009E3008404040484C40404040484444444840444
:1009F3000404040484444444840404040404844434
:100A030044448404048444444484040404040606DF
:100A130006060707000000000000000000000000B9
:100A230000000000000000000000000000000000C3
:100A330000000000000000000000000000000000B3
:100A430000000000000000000000000000000000A3
:100A53000000000000101814121100000F101010F5
:100A63000F000000101F10000000081012120D00EC
:100A7300001800000D1212120D00001800001018CB
:100A830014121100001018141211000000000000CD
:100A93000000000000000000000000000000000053
:100AA3000000000000000000000000000000000043
:100AB3000000000000000000000000000000000033
:100AC3000000000000000000000000000000000023
:100AD3000000000000000000000000000000000013
:100AE3000000000000000000000000008080808003
:100AF30080808080000000000000000000000000F3
:100B030000000000000000000000000000000000E2
:100B130000000000000000000000000000000000D2
:100B230000000000000000000000000000000000C2
:100B3300007F030C300C037F00003854545800002E
:100B43007C04047800003C40407C0000000000006E
:100B53000000000000000000000000000000000092
:100B6300000000000000000000000000FFAAAAAA85
:100B7300280800FF00000000000000000000000043
:100B83000000000000000000000000000000000062
:100B93000000000000000000007F030C300C037F06
:100BA3000000264949493200007F020408107F00F3
:100BB3000003050911FF118905C300E000F000F8E7
:100BC300000000000000004428FF11AA44000000B8
:100BD3000000000000000000000000000000000012
:100BE3000000000000000000000000000000000002
:100BF30000000000000000000000000000000000F2
:100C030000000000000000000000830138448292CD
:100C130092740183000000000000007C44FF017D0A
:100C23007D7D7D017D7D7D7D017D7D7D7D01FF0060
:100C330000000000000100010001000100010001AB
:100C4300000000000000000000010100000000009F
:100C53000000000000000000000000000000000091
:100C63000000000000000000000000000000000081
:100C73000000000000000000000000000000000071
:100C8300000000000000000000000101000000005F
:100C9300000001010000000000000000000101014C
:100CA3000101010101010101010101010101010032
:100CB3000000000000000000000000000000000031
:100CC300000000000000000000000000000000F829
:100CD3000808080808080800F81860800000008069
:100CE3006018F80000002020F8000000000000E079
:100CF300100808080810E00000002020F800000099
:100D030000000000000000000008080808088868C8
:100D130018000000000000000000000000000000B8
:100D230000000000000000000000000000000000C0
:100D330000000000000000000000000000000000B0
:100D43000000000000000000000000000000007F21
:100D530001010101010100007F00000106180601E5
:100D630000007F00000040407F4040000000001F63
:100D73002040404040201F00000040407F40400092
:100D83000000000060000000000000601806010081
:100D93000000000000000000000000000000000050
:100DA3000000000000000000000000000000000040
:100DB3000000000000000000000000000000000030
:100DC3000000000000000000000000000000000020
:100DD300000000000040202020C00000E020202070
:100DE300E000000040E00000000060202020E00060
:100DF30000000000E0202020E00000000000402070
:100E03002020C0000040202020C00000000000007F
:100E130000000000000000000000000000000000CF
:100E230000000000000000000000000000000000BF
:100E330000000000000000000000000000000000AF
:100E4300000000000000000000000000000000009F
:100E530000000000000C0A0A090C00000F08080833
:100E63000F000000080F080000000C0809090E001D
:100E7300000C00000F0909090F00000C00000C0A08
:100E83000A090C00000C0A0A090C0000000000000B
:100E9300000000000000000000000000000000004F
:100EA300000000000000000000000000000000003F
:100EB300000000000000000000000000000000002F
:100EC300000000000000000000000000000000001F
:100ED300000000000000000000000000000000000F
:100EE30000000000000000000000000080808080FF
:100EF30080808080000000000000000000000000EF
:100F030000000000000000000000000000000000DE
:100F130000000000000000000000000000000000CE
:100F230000000000000000000000000000000000BE
:100F3300007F030C300C037F00003854545800002A
:100F43007C04047800003C40407C0000000000006A
:100F5300000000000000000000000000000000008E
:100F6300000000000000000000000000FFAAAAAA81
:100F7300280800FF0000000000000000000000003F
:100F8300000000000000000000000000000000005E
:100F93000000000000000000007F030C300C037F02
:100FA3000000264949493200007F020408107F00EF
:03000000021524C2
:0C152400787FE4F6D8FD758107020FB354
:1013FE00BB010CE58229F582E5833AF583E02250A4
:10140E0006E92582F8E622BBFE06E92582F8E222ED
:0D141E00E58229F582E5833AF583E4932207
:10142B00A3F8E0C5F025F0F0E58215827002158374
:06143B00E0C838F0E822D1
:00000001FF
