:100026004C617374206D6F64653A506F776572200A
:100036004F666621004C617374206D6F64653A44A7
:1000460065657020536C65657021004C6173742082
:100056006D6F64653A4D656D6F7279205265746592
:100066006E74696F6E2C2054696D6572204F6666DA
:1000760021004C617374206D6F64653A4D656D6F38
:10008600727920526574656E74696F6E2C2054699E
:100096006D6572204F6E21004C617374206D6F6424
:1000A600653A526567697374657220526574656E48
:1000B60074696F6E21004572726F72204F72205202
:1000C60065736572766564210050726F6772616D43
:1000D600207374617274696E672E2E2E0A00456E47
:1000E60074657220706F776572646F776E206D6FBE
:1000F60064653A44454550534C4545500A00456EA3
:1001060074657220706F776572646F776E206D6F9D
:1001160064653A4D656D6F727920726574656E74AB
:10012600696F6E2C2054696D6572204F66660A00F1
:10013600456E74657220706F776572646F776E2096
:100146006D6F64653A4D656D6F7279207265746581
:100156006E74696F6E2C2054696D6572204F6E0A3D
:1001660000456E74657220706F776572646F776E86
:10017600206D6F64653A52656769737465722072A3
:0F0186006574656E74696F6E0A004552520A0007
:0E05E9005393FC5393F7439310D280D2812298
:0504760090000EEFF004
:10047B00E0C4540FA3F0D394094005E02437800661
:10048B0090000FE02430FF1204E590000EE0540FB3
:10049B00A3F0D394094005E02437800690000FE0C9
:0604AB002430FF1204E5FD
:0104B1002228
:1004B200900005EBF0A3EAF0A3E9F0900005E0FB61
:1004C200A3E0FAA3E0F91202A76017900005A3E4E3
:1004D20075F0011202C0A9F0FA1202A7FF1204E598
:0304E20080D9229C
:10051000E4FF12064C7F0112061D7F021205DAE489
:10052000FF1205BB7F0112064CE5AD20E7FBE5ADF0
:0405300030E7FB2293
:10038700EF24FE601214601714601C240370209081
:1003970000057401F0801D9000057402F08015902F
:1003A70000057403F0800D9000057404F08005E4E7
:1003B700900005F0900005E0B401057F011205DA11
:1003C700900005E0FF64016009EF64026004EFB488
:0A03D700030343AE028FA4E4F5A473
:0103E10022F9
:10042F00E5A45407FF14601514601A14601F1460BC
:10043F0024240470287BFF7A00792680267BFF7A9C
:10044F0000793B801E7BFF7A00795180167BFF7A03
:10045F00007978800E7BFF7A00799E80067BFF7A89
:06046F000079BC1204B28A
:010475002264
:0F05CB0075AE04E4F5CF75CE04439404D29222AA
:100195009000011202F3000000001205E91205CBE0
:1001A5001205107F071203E2120605BF02FAD2AF4D
:1001B500E4900000F0B2807F787E00120582900006
:1001C50000E004F0E0C3940A40EB7BFF7A0079CFAE
:1001D5001204B27F647E0012058212042F7F647EB2
:1001E50000120582900001E0FCA3E0FDA3E0FEA360
:1001F500E02401FFE43EFEE43DFDE43CFC9000010B
:100205001202E7E47F107E27FDFC900001E0F8A3D1
:10021500E0F9A3E0FAA3E0FBC31202D6700CB281A9
:100225009000011202F30000000012065DEF60B4B9
:10023500120534EF24CE601E14602F146040240391
:1002450070547BFF7A0079E41204B27F147E0012A9
:1002550005827F01803A7BFF7A0179041204B27F1F
:10026500147E001205827F0280267BFF7A01793693
:100275001204B27F147E001205827F0380127BFF79
:100285007A0179671204B27F147E001205827F0419
:100295001203870201E97BFF7A0179901204B20209
:0202A50001E96D
:0B0003007FFA7E0012000E7FFA7E00E4
:0F000E000000000000EF1F70011E144E70F22260
:10058200AD07AC06120003120003ED1D70011C142E
:040592004C70F12296
:1005BB00EF6009E5A3448054F7F5A32253A37722F8
:1005AA00EF5401C4333354C0FFE5A354B74FF5A346
:0105BA00221E
:0F05DA00EF5403C454F0FFE5A354C74FF5A32219
:0B060500E5AD30E3047F0280027F01BE
:0106100022C7
:0C061100EF5407FFE5A354F04FF5A322BF
:06001D00E5AD5480FF2256
:06065700E5AD5440FF2256
:0C061D00EF5407FFE5AD54F84FF5AD2297
:0406630043B310226B
:0B064100EF600443B3082253B3F7221C
:0E05F700EF25E05406FFE5B354F94FF5B322AB
:0B064C00EF600443B3012253B3FE2211
:10059600E5B35406FD53B3F9EFF5B4EEF5B5AF0583
:0305A600EF42B36E
:0105A900222F
:10055600E5B35406F953B3F9AFB5EFFEADB4EDFF0D
:05056600AD01ED42B300
:01056B00226D
:10056C00E5B35408F953B3F7AFABEFFEADB6EDFFFF
:05057C00AD01ED42B3EA
:010581002257
:03066700AFAC2213
:03002300020324B1
:10032400C0E0C083C082C0D075D000C000C0073018
:100334009820C298900008E0C39420501590000CB7
:10034400E0FF2408F8A699EF04541FF0900008E099
:1003540004F0309921C299900009E0D3940140102F
:1003640090000BE0FF2428F8E6F599EF04541FF001
:10037400900009E014F0D007D000D0D0D082D08310
:03038400D0E03294
:1003E200C2ACE490000BF090000DF0900009F0A375
:1003F200F090000CF0900008F0D29CC29FD29E4375
:10040200878043D880EF24FC601324FE60091470B7
:10041200127C037DF780107C037DF3800A7C037DD0
:0C042200CC80047C037DE68DAAECF5BACA
:01042E0022AB
:1004E500900009E0FED3942050F6C2ACEE70048F64
:1004F50099800F90000DE0FE2428F8A607EE04541D
:0B0505001FF0900009E004F0D2AC22CF
:06065D00900008E0FF22FE
:0C062900900009E070037F01227F002296
:10053400900008E060FAC2AC90000AE0FF2408F8DA
:10054400E6FEEF04541FF0900008E014F0D2ACAFC4
:0105540006A0
:010555002283
:03000000020635C0
:0C063500787FE4F6D8FD7581470201953E
:1002A700BB010689828A83E0225002E722BBFE0255
:0902B700E32289828A83E4932288
:1002C000A3F8E0C5F025F0F0E582158270021583F1
:0602D000E0C838F0E8224E
:1002D600EB9FF5F0EA9E42F0E99D42F0E89C45F07E
:0102E60022F5
:0C02E700ECF0A3EDF0A3EEF0A3EFF0228A
:1002F300A8828583F0D083D08212030A12030A12E4
:10030300030A12030AE473E493A3C583C5F0C58308
:10031300C8C582C8F0A3C583C5F0C583C8C582C854
:0103230022B7
:00000001FF
