:10023500524E472056616C756528484558293A0045
:020245000A00AD
:0E0277005393FC5393F7439310D280D281220D
:05012300900007EFF061
:10012800E0C4540FA3F0D394094005E024378006B7
:10013800900008E02430FF1201C1900007E0540F3E
:10014800A3F0D394094005E024378006900008E026
:060158002430FF1201C17A
:01015E00227E
:10015F00900007EBF0A3EAF0A3E9F0900007E0FBB3
:10016F00A3E0FAA3E0F91201926017900007A3E44D
:10017F0075F0011201ABA9F0FA120192FF1201C141
:03018F0080D922F2
:100089001202777F071200D6120285BF02FAD2AF99
:100099007F011202CC7F011202C17FF47E0112029C
:1000A9000EB280120222EF60F11202E3900006EF15
:1000B900F07BFF7A02793512015F900006E0FF12AA
:0D00C90001237BFF7A02794512015F80CD93
:0B0003007FFA7E0012000E7FFA7E00E4
:0F000E000000000000EF1F70011E144E70F22260
:10020E00AD07AC06120003120003ED1D70011C14A5
:04021E004C70F1220D
:10025800EF6009E5A3448054F7F5A32253A377225E
:10024700EF5401C4333354C0FFE5A354B74FF5A3AC
:010257002284
:0F026800EF5403C454F0FFE5A354C74FF5A3228E
:0B028500E5AD30E3047F0280027F0142
:01029000224B
:0C029100EF5407FFE5A354F04FF5A32243
:06001D00E5AD5480FF2256
:0602D700E5AD5440FF22DA
:0C029D00EF5407FFE5AD54F84FF5AD221B
:0B02C100EF600443D6802253D67F225A
:0B02CC00EF600443D6402253D6BF224F
:0302E300AFD72270
:10022200E5D65420D39400E4940040047F01800278
:030232007F002228
:03002300020026B2
:10002600C0E0C083C082C0D075D000C000C0073019
:100036009820C298900000E0C394205015900004C8
:10004600E0FF2408F8A699EF04541FF0900000E0A2
:1000560004F0309921C299900001E0D39401401038
:10006600900003E0FF2428F8E6F599EF04541FF00A
:10007600900001E014F0D007D000D0D0D082D08319
:03008600D0E03295
:1000D600C2ACE4900003F0900005F0900001F0A39C
:1000E600F0900004F0900000F0D29CC29FD29E4394
:1000F600878043D880EF24FC601324FE60091470C7
:10010600127C037DF780107C037DF3800A7C037DDF
:0C011600CC80047C037DE68DAAECF5BAD9
:0101220022BA
:1001C100900001E0FED3942050F6C2ACEE70048F93
:1001D10099800F900005E0FE2428F8A607EE04544C
:0B01E1001FF0900001E004F0D2AC22FF
:0602DD00900000E0FF228A
:0C02A900900001E070037F01227F002222
:1001EC00900000E060FAC2AC900002E0FF2408F836
:1001FC00E6FEEF04541FF0900000E014F0D2ACAF18
:01020C0006EB
:01020D0022CE
:030000000202B544
:0C02B500787FE4F6D8FD758147020089CF
:10019200BB010689828A83E0225002E722BBFE026B
:0901A200E32289828A83E493229E
:1001AB00A3F8E0C5F025F0F0E58215827002158307
:0601BB00E0C838F0E82264
:00000001FF
