:1003F900466C617368206164647265737320307838
:0D040900323830307E3078323830343A00EE
:0E0488005393FC5393F7439310D280D28122FA
:0502B100900005EFF0D4
:1002B600E0C4540FA3F0D394094005E02437800628
:1002C600900006E02430FF120387900005E0540FEB
:1002D600A3F0D394094005E024378006900006E099
:0602E6002430FF12038723
:0102EC0022EF
:10032900900005EBF0A3EAF0A3E9F0900005E0FBEB
:10033900A3E0FAA3E0F91201186017900005A3E4FD
:1003490075F001120143A9F0FA120118FF1203878F
:0303590080D92226
:1002ED00A2AF92D5C2AFD2FD90000A74FFF5F01205
:1002FD00014345F0601F4387101201188F828E83D2
:10030D00F05387EF0FBF00010E740129F9E43AFA9B
:0B031D0030FCD580FBC2FDA2D592AFE2
:0103280022B2
:10035C0090000A74FFF5F012014345F0601C4387CE
:10036C00108F828E83E01201315387EF0FBF000193
:0A037C000E740129F9E43AFA80D664
:010386002254
:10002600900001120176000000007F02120479128E
:1000360004887F07120264120496BF02FAD2AF90B8
:100046000001E0FCA3E0FDA3E0FEA3E02401FFE441
:100056003EFEE43DFDE43CFC90000112016AE47FB3
:10006600107E27FDFC900001E0F8A3E0F9A3E0FA7A
:10007600A3E0FBC3120159700CB28090000112017B
:1000860076000000002092B77F0A7E00120430201E
:1000960092AD7F141204447F1E7E00120430E49059
:1000A6000000F0900000E0FF04FE74482FF8A6065A
:1000B600E004F0E0B405EC7B007A00794890000A91
:1000C600E4F0A37405F07F007E281202ED7A007931
:1000D6004D90000AE4F0A37405F07F007E28120319
:1000E6005C7BFF7A0379F9120329E4900000F09013
:1000F6000000E0FFC394055011744D2FF8E6FF127F
:1001060002B1900000E004F080E530920302004561
:0201160080F86F
:0B0416007FFA7E001204217FFA7E00B6
:0F0421000000000000EF1F70011E144E70F22249
:10043000AD07AC06120416120416ED1D70011C1453
:040440004C70F122E9
:10046900EF6009E5A3448054F7F5A32253A377224B
:10045800EF5401C4333354C0FFE5A354B74FF5A399
:010468002271
:0F047900EF5403C454F0FFE5A354C74FF5A3227B
:0B049600E5AD30E3047F0280027F012F
:0104A1002238
:0C04A200EF5407FFE5A354F04FF5A32230
:0604D900E5AD5480FF2296
:0604DF00E5AD5440FF22D0
:0C04AE00EF5407FFE5AD54F84FF5AD2208
:10044400A2AF92D5C2AFD2FD8FFA20FCFDC2FDA2AD
:04045400D592AF226C
:10000300A2AF92D5C2AFD2FD900020EEF0A3EFF0E5
:0F001300F5828E83EDF020FCFDC2FDA2D592AFE9
:0100220022BB
:0B020A0090000EEBF0A3EAF0A3E9F077
:10021500A2AF92D5C2AFD2FD900022EEF0A3EFF0CF
:1002250090001174FFF5F012014345F0602A90002B
:100235000EE0FBA3E475F001120143A9F0FA1201E7
:1002450018FF900022E475F00112014385F082F554
:0E02550083EFF030FCCA80FBC2FDA2D592AF51
:010263002278
:0604D2008F828E83E0FF23
:0104D8002201
:1003B20090001874FFF5F012014345F060168F8229
:1003C2008E83E01201310FBF00010E740129F9E49E
:0403D2003AFA80DC97
:0103D6002204
:030023000201A730
:1001A700C0E0C083C082C0D075D000C000C0073097
:1001B7009820C29890001AE0C39420501590001E12
:1001C700E0FF2408F8A699EF04541FF090001AE006
:1001D70004F0309921C29990001BE0D3940140109C
:1001E70090001DE0FF2428F8E6F599EF04541FF06E
:1001F70090001BE014F0D007D000D0D0D082D0837D
:03020700D0E03212
:10026400C2ACE490001DF090001FF090001BF0A3BE
:10027400F090001EF090001AF0D29CC29FD29E43D0
:10028400878043D880EF24FC601324FE6009147037
:10029400127C037DF780107C037DF3800A7C037D50
:0C02A400CC80047C037DE68DAAECF5BA4A
:0102B000222B
:1003870090001BE0FED3942050F6C2ACEE70048FB1
:1003970099800F90001FE0FE2428F8A607EE04546A
:0B03A7001FF090001BE004F0D2AC221D
:0604E50090001AE0FF2266
:0C04BA0090001BE070037F01227F0022F5
:1003D70090001AE060FAC2AC90001CE0FF2408F815
:1003E700E6FEEF04541FF090001AE014F0D2ACAF11
:0103F70006FF
:0103F80022E2
:030000000204C631
:0C04C600787FE4F6D8FD75815102002615
:10011800BB010689828A83E0225002E722BBFE02E5
:09012800E32289828A83E4932218
:10013100BB010689828A83F0225002F722BBFE01AD
:02014100F322A7
:10014300A3F8E0C5F025F0F0E5821582700215836F
:06015300E0C838F0E822CC
:10015900EB9FF5F0EA9E42F0E99D42F0E89C45F0FC
:010169002273
:0C016A00ECF0A3EDF0A3EEF0A3EFF02208
:10017600A8828583F0D083D08212018D12018D1260
:10018600018D12018DE473E493A3C583C5F0C58385
:10019600C8C582C8F0A3C583C5F0C583C8C582C8D3
:0101A6002236
:00000001FF
