:080158005393FCD280D28122F6
:10003300900000EEF0A3EFF0E4FF12014D7F0112F8
:10004300014D900001E024FFFF900000E034FFFE2B
:030053000200B0F8
:10000300E4FF12014D7F0112012A7F031201047FD5
:10001300007E801200337F021200F5E4FF1200E538
:100023007F0112014DE5AD20E7FBE5AD30E7FB2293
:1000D50012015812000375A404E4F5A4B28080F659
:0B0056007FFA7E001200617FFA7E003E
:0F0061000000000000EF1F70011E144E70F2220D
:10009C00AD07AC06120056120056ED1D70011C1473
:0400AC004C70F12281
:1000E500EF6009E5A3448054F7F5A32253A37722D3
:1000C400EF5401C4333354C0FFE5A354B74FF5A331
:0100D4002209
:0F00F500EF5403C454F0FFE5A354C74FF5A32203
:0B011200E5AD30E3047F0280027F01B6
:01011D0022BF
:0C011E00EF5407FFE5A354F04FF5A322B7
:06016000E5AD5480FF2212
:06016600E5AD5440FF224C
:0C012A00EF5407FFE5AD54F84FF5AD228F
:04016C0043B3102267
:0B014200EF600443B3082253B3F72220
:0E010400EF25E05406FFE5B354F94FF5B322A2
:0B014D00EF600443B3012253B3FE2215
:1000B000E5B35406FD53B3F9EFF5B4EEF5B5AF056E
:0300C000EF42B359
:0100C300221A
:10007000E5B35406F953B3F9AFB5EFFEADB4EDFFF8
:05008000AD01ED42B3EB
:010085002258
:10008600E5B35408F953B3F7AFABEFFEADB6EDFFEA
:05009600AD01ED42B3D5
:01009B002242
:03017000AFAC220F
:03000000020136C4
:0C013600787FE4F6D8FD7581070200D543
:00000001FF
