:10000300414443432053616D70696E672056616CB0
:0B001300756528484558293A000A008E
:100128007F0E12021DE4FF1202B2E4FF12025DE428
:10013800FF12028AE4FF12022D7F0312026C7F0174
:0A01480012029853D4F075D500227E
:0C02A6005393FE5393F7439310D2802231
:0200F6008F0E6B
:1000F800E50EC4540FF50FD39409E50F40042437D7
:1001080080022430FF120177E50E540FF50FD394C7
:0F01180009E50F4004243780022430FF120177DD
:0101270022B5
:100152008B0E8A0F8910AB0EAA0FA9101201CE6066
:10016200130510E5107002050F14F91201CEFF12EB
:05017200017780E2228C
:10006F001202A67F071200B41202D6BF02FA1201C3
:10007F0028D2AFB2807FF47E011201E71202CA12BA
:10008F000310EF70FA7BFF7A00790312015212030B
:10009F00221200F612001E1200F67BFF7A00791C66
:0500AF0012015280CE99
:0B019B007FFA7E001201A67FFA7E00B2
:0F01A6000000000000EF1F70011E144E70F222C7
:1001E700AD07AC0612019B12019BED1D70011C149B
:0401F7004C70F12235
:10021D00EF25E025E0543CFFE5D354C34FF5D32241
:0C02B200EF5403FFE5D354FC4FF5D322BA
:0F025D00EFC4333354C0FFE5D2543F4FF5D222E4
:0E028A00EFC4335420FFE5D254DF4FF5D222EB
:10022D00EF25E025E0541CFFE5D254E34FF5D22233
:10023D00EF25E025E0541CFFE5D254E34FF5D22223
:0C02BE00EF5403FFE5D254FC4FF5D222B0
:0F026C00EFC4333354C0FFE5D1543F4FF5D122D7
:0E029800EFC4335420FFE5D154DF4FF5D122DF
:0B02CA007F0143D380AE071FEE70FAE7
:0102D5002206
:03001E00AFD52239
:03032200AFD42233
:06031000E5D35440FF227A
:1001FB00E5D154187E007803CEC313CE13D8F9FF84
:01020B0022D0
:10024D00EF6009E5A3448054F7F5A32253A3772269
:10020C00EF5401C4333354C0FFE5A354B74FF5A3E7
:01021C0022BF
:0F027B00EF5403C454F0FFE5A354C74FF5A3227B
:0B02D600E5AD30E3047F0280027F01F1
:0102E10022FA
:0C02E200EF5407FFE5A354F04FF5A322F2
:06031600E5AD5480FF225A
:06031C00E5AD5440FF2294
:0C02EE00EF5407FFE5AD54F84FF5AD22CA
:03002300020026B2
:10002600C0E0C0D075D000C000309819C298E5086D
:10003600C3942050107411250CF8A699E50C0454AD
:100046001FF50C050830991AC299E509D3940140A9
:100056000F7431250BF8E6F599E50B04541FF50BE3
:090066001509D000D0D0D0E03221
:1000B400C2ACE4F50BF50DF509F50AF50CF508D21B
:1000C4009CC29FD29E43878043D880EF24FC601358
:1000D40024FE60091470127C037DF780107C037D7C
:1000E400F3800A7C037DCC80047C037DE68DAA8C9E
:0100F400BA51
:0100F50022E8
:10017700E509D3942050F9C2ACE50970048F998042
:100187000E7431250DF8A607E50D04541FF50D056E
:0401970009D2AC22BB
:03032500AF0822FC
:0A030600E50970037F01227F002249
:1001B500E50860FCC2AC7411250AF8E6FFE50A04FF
:0801C500541FF50A1508D2AC25
:0101CD00220F
:030000000202FAFF
:0C02FA00787FE4F6D8FD75815002006F9B
:1001CE00BB010689828A83E0225002E722BBFE022F
:0901DE00E32289828A83E4932262
:00000001FF
