:10012E0057656C636F6D6520746F20466959752134
:02013E000A00B5
:0C017F005393FE5393F7439310D2802259
:0F01610075985043878043D8808FAAEEF5BA2255
:0801BB008F993099FDC29922D1
:1000FB00900004EBF0A3EAF0A3E9F0900004E0FB1E
:10010B00A3E0FAA3E0F91200036017900004A3E444
:10011B0075F00112001CA9F0FA120003FF1201BBCB
:03012B0080D92256
:1000800090000012004F0000000012017F7FF77EF9
:100090000312016112018BBF02FAD2AF7BFF7A011A
:1000A000792E1200FB900000E0FCA3E0FDA3E0FE2F
:1000B000A3E02401FFE43EFEE43DFDE43CFC9000AF
:1000C00000120043E47F987E3AFDFC900000E0F8C7
:1000D000A3E0F9A3E0FAA3E0FBC3120032700C9096
:1000E000000012004F00000000B2803098B7AF99B6
:0B00F000C2988F993099FDC29980AA38
:10015100EF6009E5A3448054F7F5A32253A3772266
:10014000EF5401C4333354C0FFE5A354B74FF5A3B4
:01015000228C
:0F017000EF5403C454F0FFE5A354C74FF5A32287
:0B018B00E5AD30E3047F0280027F013D
:010196002246
:0C019700EF5407FFE5A354F04FF5A3223E
:0601C300E5AD5480FF22AF
:0601C900E5AD5440FF22E9
:0C01A300EF5407FFE5AD54F84FF5AD2216
:030000000201AF4B
:0C01AF00787FE4F6D8FD7581070200801F
:10000300BB010689828A83E0225002E722BBFE02FB
:09001300E32289828A83E493222E
:10001C00A3F8E0C5F025F0F0E58215827002158397
:06002C00E0C838F0E822F4
:10003200EB9FF5F0EA9E42F0E99D42F0E89C45F024
:01004200229B
:0C004300ECF0A3EDF0A3EEF0A3EFF02230
:10004F00A8828583F0D083D08212006612006612D8
:10005F000066120066E473E493A3C583C5F0C583FD
:10006F00C8C582C8F0A3C583C5F0C583C8C582C8FB
:01007F00225E
:00000001FF
