:0C0075005393FED280539EDF439E402236
:0A008D0075A6105388FB43A801225A
:0A00970012007512008DD2AF80FE3A
:03000300020006F2
:10000600C0E0C0F0C083C082C0D075D000C000C0C0
:1000160001C002C003C004C005C006C007B2807F8D
:10002600E87E03120061D007D006D005D004D003C5
:10003600D002D001D000D0D0D082D083D0F0D0E092
:010046003287
:0B0047007FFA7E001200527FFA7E005C
:0F0052000000000000EF1F70011E144E70F2221C
:10006100AD07AC06120047120047ED1D70011C14CC
:040071004C70F122BC
:030000000200817A
:0C008100787FE4F6D8FD75810702009737
:00000001FF
